:0400000002006C325C
:01000B0032C2
:0100130032BA
:01001B0032B2
:030023000200E0F8
:200028000000E2FBEAF2802C0000E0FBEAF08024E6B50202EBF62200E2B50202EBF22200BE
:20004800E0B50202EBF02230F6E0A88220F5D3EAC6F582228B822230F6E6A88220F5D980CE
:01006800CFC8
:1B00C500750800750900750C03750D00750E43750F007510FF7511FF02006961
:030069000202028E
:2000E000C0E0C082C083C0D01098028055E51130E70C74F2B59907E4F510F511801FE51174
:2001000020E71AE510250CF582E511350DF583E599F074012510F510E43511F511C3E5106C
:200120009440E511648094804018850C0A850D0B850E0C850F0D850A0E850B0F7510FF75F8
:2001400011FFD0D0D083D082D0E032AE82AF838E048F051EBEFF011FEC4D60147C017D003E
:200160008C028D031CBCFF011DEA4B60E20080F022AF83E582900001F0EFA3F07590FF754E
:2001800080FFAE08E40354F8CEC403CE6ECE54F8CE6EFFAC097D00EC2EFEED3FFF900001CB
:2001A000E0FCA3E0FDEE2CF582EF3DF583E0F5A08508F005F07401800225E0D5F0FB64FFA8
:2001C000F5908509F005F07401800225E0D5F0FB64FFF58090004B12014B7590FF7580FF62
:2001E000E50904F509E50954077016F509AE08FF8E828F83A37512088F13120270AE828E55
:20020000082253877F759850438E04759CD9438E01438E10D2ACD2AF850E82850F8312014E
:030220007180F5F5
:2002AA00000000000000000000000000000000000000000000000000000000000000000034
:2002CA00000000000000000000000000000000000000000000000000000000000000000014
:2002EA00FFFFFFFFFFFFFFFFFFFFFFFFFFFFFFFFFFFFFFFFFFFFFFFFFFFFFFFFFFFFFFFF14
:20030A00FFFFFFFFFFFFFFFFFFFFFFFFFFFFFFFFFFFFFFFFFFFFFFFFFFFFFFFFFFFFFFFFF3
:06009B00E478FFF6D8FD39
:200079007980E94400601B7A019002AA780375A000E493F2A308B8000205A0D9F4DAF275FE
:02009900A0FFC6
:20022300E512451360467A01E51225E0F512E513334012F513E5829512E583951340030A58
:2002430080E6C3E51313F513E51213F512C3E5829512F5F0E58395134005F58385F082C311
:0D026300E51313F513E51213F512DAE1228D
:2000A1007800E84400600A790175A000E4F309D8FC7802E84400600C7901900001E4F0A35A
:0400C100D8FCD9FA94
:0D006C007581131202A6E58260030200698F
:20027000C2D5E58330E70DD2D5E4C39582F582E49583F583E51330E70BE4C39512F512E4A8
:160290009513F51312022330D50BE4C39582F582E49583F5832296
:0402A600758200223B
:00000001FF
